S01600006C616E5F76335F6E6577746573742E7372656362
S113000012C021C049C31FC01EC01DC01CC01BC0DC
S11300101AC019C018C017C016C015C014C013C028
S113002012C011C010C011241FBECFE5D1E0DEBF45
S1130030CDBF20E0A0E6B0E001C01D92A138B20718
S1130040E1F727D373C3DCCFCF93DF9300D0CDB7D1
S1130050DEB71B983C9A3B983A98399A389A1E987E
S1130060369A3699FECF85B190E09A838983369A81
S11300703699FECF85B190E09A83898389819A81EC
S11300800F900F90DF91CF910895CF93DF9300D01D
S1130090CDB7DEB71B9A3C983B983A98399A389872
S11300A01E9A369A3699FECF85B190E09A83898359
S11300B0369A3699FECF85B190E09A8389838981F7
S11300C09A810F900F90DF91CF91089510927B0049
S11300D010927C0010927D0010927E0010926E00AF
S11300E010926F00109270001092710010926D00C7
S11300F010926C00109268001092690010926A00CD
S113010010926B00109264001092650010926600C9
S113011010926700109263001092620010926100C6
S113012010926000109278001092770010927A007A
S1130130109279001CBC10927F00379A80B78062BD
S113014080BF8FB5877F8FBD8FB58B7F8FBD8FB5F8
S113015082608FBD8FB581608FBD089580917F00CF
S1130160813009F4BCC020F0823009F479C10895CB
S11301708CDF909378008093770080917700909142
S1130180780060E471E0ABD270936100609360002A
S11301908091770090917800823F910524F48CB58A
S11301A08F5F8CBD0AC08091770090917800863F64
S11301B091051CF08CB581508CBD80917700909195
S11301C07800823F9105F4F080916E0090916F0069
S11301D0A0917000B09171000196A11DB11D809392
S11301E06E0090936F00A0937000B0937100813DF6
S11301F09740A105B10530F081E090E090936D0047
S113020080936C0020917700309178008091770082
S11302109091780041E0181619060CF040E0442350
S113022079F081E02A3E31050CF080E0882341F02A
S113023010926E0010926F00109270001092710074
S113024003DF90937A008093790080916C00909101
S11302506D00019791F58091790090917A00209139
S1130260600030916100821B930B8D3D910598F0E5
S113027080917B0090917C00A0917D00B0917E00E4
S11302800196A11DB11D80937B0090937C00A093E7
S11302907D00B0937E008091790090917A00821B5A
S11302A0930B8C3D910548F410927B0010927C00D6
S11302B010927D0010927E00089580917B009091B1
S11302C07C00A0917D00B0917E00803D9740A10507
S11302D0B10508F4F3C081E080937F000895B4DE93
S11302E090937A0080937900D0DE90937800809385
S11302F07700809177009091780060E471E0EFD10D
S113030070936100609360008091790090917A000D
S1130310861B970B8D3D910520F08CB581508CBDCB
S11303200CC08091790090917A00861B970B8C3DCC
S1130330910518F48CB58D5F8CBD809179009091F6
S11303407A002091600030916100821B930B803D04
S11303509105F0F48091640090916500A09166008D
S1130360B09167000196A11DB11D80936400909324
S11303706500A0936600B0936700883E9340A10592
S1130380B10530F081E090E09093630080936200C7
S11303908091790090917A00821B930B893D91059D
S11303A040F0109264001092650010926600109262
S11303B067008091790090917A00813F910514F053
S11303C080EA8CBD8091790090917A008A3A9105F7
S11303D014F482E88CBD8091620090916300892BB3
S11303E031F010927F0010926300109262008091AD
S11303F07700909178000A979CF48091680090911E
S11304006900A0916A00B0916B000196A11DB11D15
S11304108093680090936900A0936A00B0936B0086
S113042080917700909178004F974CF0109268007B
S11304301092690010926A0010926B0008958091E6
S1130440680090916900A0916A00B0916B00803DB2
S11304509740A105B10590F182E080937F00089553
S1130460F3DD90937A00809379000FDE9093780007
S113047080937700809177009091780060E471E038
S11304802ED1709361006093600080917900909107
S11304907A00861B970B8D3D910520F08CB5815019
S11304A08CBD08958091790090917A00861B970BFA
S11304B08C3D910518F48CB58D5F8CBD0895CF9358
S11304C0DF9300D0CDB7DEB71A82198289819A8171
S11304D08039914054F489819A8101969A83898361
S11304E089819A8180399140B4F3B49B12C01A82F5
S11304F0198289819A81883E934074F489819A8112
S113050001969A83898389819A81883E9340B4F3C2
S113051006C080E090E005C081E090E002C081E088
S113052090E01A82198222B5216022BD22B5206191
S113053022BD0F900F90DF91CF910895F89480E041
S113054090E041E050E063B59A01082E02C0220F0A
S1130550331F0A94E2F72095322F362333BD32B588
S1130560232322BD01968830910569F789B58260FD
S113057089BD09B400FEFDCF89B5846089BD80E8DA
S113058088BD84E088BDB898C09AB99AC198BC98CF
S1130590C498BB9AC39880B78F7D80BF80B78F7E85
S11305A080BF80B7816080BF86B58D7F86BD86B5EC
S11305B08E7F86BD80B78F7D80BF8FB5877F8FBDCF
S11305C08FB58B7F8FBD8FB58D7F8FBD8FB58E7FA0
S11305D08FBD8FEF8BBD1CBC3F983E9A3D9A3598DA
S11305E0379AC19A8BB780628BBF8BB780618BBF00
S11305F082B5816082BD82B5806182BD80B7806230
S113060080BF8FB5877F8FBD8FB58B7F8FBD8FB533
S113061082608FBD8FB581608FBD1092780010927B
S1130620770010927A0010927900109280007894EA
S113063008958091750090917600892B49F03FDFF1
S1130640909374008093730010927600109275005A
S11306508091730090917400019749F481E0809334
S1130660720034DD80917200813051F008958091E0
S1130670730090917400892BA9F710927200089569
S11306806DDD8CB580938000809172008130C1F360
S1130690089554DFCEDFFECF1F920F920FB60F9254
S11306A011248F939F93B49B0BC0C19882B58E7F06
S11306B082BD81E090E0909376008093750008C03D
S11306C0B49906C081E090E0909376008093750021
S11306D09F918F910F900FBE0F901F90189597FBCD
S11306E0072E16F4009406D077FD08D00BD007FC33
S11306F005D03EF4909581959F4F0895709561952E
S11307007F4F0895AA1BBB1B51E107C0AA1FBB1F43
S1130710A617B70710F0A61BB70B881F991F5A9589
S1130720A9F780959095BC01CD010895F894FFCF69
S9030000FC
