S01600006C616E5F76335F6E6577746573742E7372656362
S113000012C021C02BC11FC01EC01DC01CC01BC0FC
S11300101AC019C018C038C116C015C014C013C006
S113002012C011C010C011241FBECFE5D1E0DEBF45
S1130030CDBF20E0A0E6B0E001C01D92AA36B20711
S1130040E1F709D12BC1DCCF1B983C983B9A3A9A33
S1130050399A38981E9A369A86B185B190E00895F7
S1130060CF93DF9300D0CDB7DEB71A82198289818E
S11300709A8180349F4154F489819A8101969A83AC
S1130080898389819A8180349F41B4F3B09914C0E3
S11300901A82198289819A8188359B4184F48981E5
S11300A09A8101969A83898389819A8188359B41B3
S11300B0B4F321E030E005C020E030E002C021E0EC
S11300C030E01A82198282B5816082BD822F932F1B
S11300D00F900F90DF91CF910895F89480E090E015
S11300E041E050E063B59A01082E02C0220F331F8D
S11300F00A94E2F72095322F362333BD32B52323F9
S113010022BD01968830910569F789B5826089BD61
S113011009B400FEFDCF89B5846089BD80E888BD3F
S113012084E088BDB898C09AB99AC198BB9AC3981C
S113013080B78F7D80BF80B78F7E80BF80B781609E
S113014080BF86B58D7F86BD86B58E7F86BD80B720
S11301508F7D80BF8FB5877F8FBD8FB58B7F8FBD20
S11301608FB58D7F8FBD8FB58E7F8FBD8FEF8BBD8C
S11301701CBC3F983E9A3D9A379A339AC19A8BB7E2
S113018080628BBF8BB780618BBF82B5816082BD7B
S113019080B7806280BF8FB5877F8FBD8FB58B7F1F
S11301A08FBD8FB582608FBD8FB581608FBD789410
S11301B008958091640090916500892B49F050DF87
S11301C09093630080936200109265001092640023
S11301D08091620090916300019701F58091600025
S11301E090916100019751F41CBC1092610010922F
S11301F06000109263001092620010C08DE390E0E2
S1130200909369008093680081E090E0909361008E
S113021080936000109263001092620080916000ED
S1130220909161000197B1F40FDF90936700809380
S1130230660020916800309169008217930724F4C6
S11302408CB58F5F8CBD0895281739071CF48CB5C5
S113025081508CBD089541DFACDFFECF1F920F9219
S11302600FB60F9211248F939F93B09906C081E02B
S113027090E090936500809364009F918F910F901C
S11302800FBE0F901F9018951F920F920FB60F92EA
S113029011240F900FBE0F901F901895F894FFCF64
S9030000FC
