S01600006C616E5F76335F6E6577746573742E7372656362
S113000012C021C0EEC21FC01EC01DC01CC01BC038
S11300101AC019C018C008C316C015C014C013C034
S113002012C011C010C011241FBECFE5D1E0DEBF45
S1130030CDBF20E0A0E6B0E001C01D92A238B20717
S1130040E1F7CCD2FBC2DCCF1B983C9A3B983A98A0
S1130050399A389A1E98369A86B185B190E00895F7
S11300601B9A3C983B983A98399A38981E9A369A33
S113007086B185B190E0089510927D0010927E00C3
S113008010927F001092800010926E0010926F0008
S1130090109270001092710010926D0010926C001A
S11300A0109268001092690010926A0010926B001E
S11300B0109264001092650010926600109267001E
S11300C0109263001092620010926100109260001E
S11300D010928100379A339A80B7806280BF8FB5BF
S11300E0877F8FBD8FB58B7F8FBD8FB582608FBDAE
S11300F08FB581608FBD089580918100813009F4AE
S1130100A9C020F0823009F084C15DC1A9DF9093B9
S113011073008093720098DF90937500809374004D
S113012080917200909173009C01992314F4215ED4
S11301303F4F3595279535952795359527953595D1
S11301402795359527953093610020936000823F71
S1130150910524F48CB58F5F8CBD06C0863F910554
S11301601CF08CB581508CBD2091720030917300CD
S1130170223F3105F4F080916E0090916F00A091C0
S11301807000B09171000196A11DB11D80936E00A5
S113019090936F00A0937000B0937100813D9740DD
S11301A0A105B10530F081E090E090936D0080935B
S11301B06C0021503109293E310540F410926E0043
S11301C010926F00109270001092710080916C0078
S11301D090916D00019761F5209174003091750044
S11301E08091600090916100281B390B2D3D3105F1
S11301F098F080917D0090917E00A0917F00B09155
S113020080000196A11DB11D80937D0090937E0016
S1130210A0937F00B09380002C3D310548F41092E8
S11302207D0010927E0010927F001092800008954D
S113023080917D0090917E00A0917F00B09180001C
S1130240803D9740A105B10508F4E3C081E08093A7
S113025081000895F9DE909375008093740000DFA7
S11302608093720090937300282F392F332314F452
S1130270215E3F4F359527953595279535952795DB
S11302803595279535952795309361002093600027
S11302908091740090917500821B930B8D3D9105A4
S11302A020F08CB581508CBD06C08C3D910518F4AE
S11302B08CB58D5F8CBD2091740030917500809158
S11302C0600090916100A901481B590B403D510504
S11302D0F0F48091640090916500A0916600B09163
S11302E067000196A11DB11D809364009093650081
S11302F0A0936600B0936700883E9340A105B105C2
S113030030F081E090E09093630080936200493D77
S1130310510540F01092640010926500109266003E
S113032010926700213F310514F080EA8CBD809162
S11303307400909175008A3A910514F482E88CBD9A
S11303408091620090916300892B31F010928100BA
S11303501092630010926200209172003091730039
S11303602A3031059CF48091680090916900A09135
S11303706A00B0916B000196A11DB11D80936800C5
S113038090936900A0936A00B0936B002F313105FC
S11303904CF0109268001092690010926A0010925A
S11303A06B0008958091680090916900A0916A00A3
S11303B0B0916B00803D9740A105B10550F182E0FA
S11303C080938100089540DE9093750080937400BB
S11303D047DE96958795929582958F7089279F70B1
S11303E0892790936100809360002091740030917C
S11303F07500A901481B590B4D3D510520F08CB5E2
S113040081508CBD08954C3D510518F48CB58D5F19
S11304108CBD0895CF93DF9300D0CDB7DEB71A8299
S1130420198289819A818039914054F489819A8111
S113043001969A83898389819A8180399140B4F3A2
S1130440B49B14C01A82198289819A81883E934090
S113045084F489819A8101969A83898389819A8116
S1130460883E9340B4F321E030E005C020E030E062
S113047002C021E030E01A82198282B5816082BD17
S113048082B5806182BD822F932F0F900F90DF91F0
S1130490CF910895F89480E090E041E050E063B596
S11304A09A01082E02C0220F331F0A94E2F7209506
S11304B0322F362333BD32B5232322BD0196883033
S11304C0910569F789B5826089BD09B400FEFDCF45
S11304D089B5846089BD80E888BD84E088BDB8980A
S11304E0C09AB99AC198BC98C498BB9AC39880B76B
S11304F08F7D80BF80B78F7E80BF80B7816080BFD3
S113050086B58D7F86BD86B58E7F86BD80B78F7D8F
S113051080BF8FB5877F8FBD8FB58B7F8FBD8FB524
S11305208D7F8FBD8FB58E7F8FBD8FEF8BBD1CBC34
S11305303F983E9A3D9A379A339AC19A8BB7806214
S11305408BBF8BB780618BBF82B5816082BD82B562
S1130550806182BD80B7806280BF8FB5877F8FBD89
S11305608FB58B7F8FBD8FB582608FBD8FB5816056
S11305708FBD7894089586B380718093760010922D
S1130580770080917B0090917C00892B49F042DFB9
S113059090937A008093790010927C0010927B00F3
S11305A08091790090917A00019749F481E08093D9
S11305B0780062DD80917800813051F00895809157
S11305C0790090917A00892BA9F710927800089508
S11305D093DD809178008130D9F308955BDFCBDF20
S11305E0FECF1F920F920FB60F9211248F939F93F9
S11305F0B49B0BC0C19882B58E7F82BD81E090E030
S113060090937C0080937B0008C0B49906C081E07D
S113061090E090937C0080937B009F918F910F904A
S11306200FBE0F901F9018951F920F920FB60F9246
S113063011240F900FBE0F901F901895F894FFCFC0
S9030000FC
