S01600006C616E5F76335F6E6577746573742E7372656362
S113000012C021C035C31FC01EC01DC01CC01BC0F0
S11300101AC019C018C017C016C015C014C013C028
S113002012C011C010C011241FBECFE5D1E0DEBF45
S1130030CDBF20E0A0E6B0E001C01D92A038B20719
S1130040E1F713D338C3DCCF1B983C9A3B983A981A
S1130050399A389A1E98369A3699FECF85B190E02F
S113006008951B9A3C983B983A98399A38981E9A66
S1130070369A3699FECF85B190E0089510927B00B0
S113008010927C0010927D0010927E0010926E00FF
S113009010926F00109270001092710010926D0017
S11300A010926C00109268001092690010926A001D
S11300B010926B001092640010926500109266001A
S11300C01092670010926300109262001092610017
S11300D010926000109278001092770010927A00CB
S11300E0109279001CBC10927F00379A339A80B723
S11300F0806280BF8FB5877F8FBD8FB58B7F8FBDAB
S11301008FB582608FBD8FB581608FBD089580915A
S11301107F00813009F4BEC020F0823009F486C12A
S113012008959FDF91DF8091770090917800992363
S11301300CF44F9695958795959587959595879504
S11301409595879595958795909361008093600028
S11301508091770090917800823F910524F48CB5CA
S11301608F5F8CBD0AC08091770090917800863FA4
S113017091051CF08CB581508CBD809177009091D5
S11301807800823F9105F4F080916E0090916F00A9
S1130190A0917000B09171000196A11DB11D8093D2
S11301A06E0090936F00A0937000B0937100813D36
S11301B09740A105B10530F081E090E090936D0087
S11301C080936C00209177003091780080917700C3
S11301D09091780041E0181619060CF040E0442391
S11301E079F081E02A3E31050CF080E0882341F06B
S11301F010926E0010926F001092700010927100B5
S113020080916C0090916D00019791F58091790037
S113021090917A002091600030916100821B930BD1
S11302208D3D910598F080917B0090917C00A09188
S11302307D00B0917E000196A11DB11D80937B00CD
S113024090937C00A0937D00B0937E008091790010
S113025090917A00821B930B8C3D910548F4109287
S11302607B0010927C0010927D0010927E00089515
S113027080917B0090917C00A0917D00B0917E00E4
S1130280803D9740A105B10508F409C181E0809340
S11302907F000895D9DE90937A0080937900E1DE9F
S11302A09093780080937700809177009091780004
S11302B099230CF44F9695958795959587959595E3
S11302C087959595879595958795909361008093EB
S11302D060002091790030917A00281B390B2D3D64
S11302E0310520F08CB581508CBD0DC02091790072
S11302F030917A00A901481B590B4C3D510518F463
S11303008CB58D5F8CBD8091790090917A0020919D
S1130310600030916100821B930B803D9105F0F4E5
S11303208091640090916500A0916600B09167008F
S11303300196A11DB11D8093640090936500A09364
S11303406600B0936700883E9340A105B10530F084
S113035081E090E090936300809362008091790043
S113036090917A00821B930B893D910540F0109285
S113037064001092650010926600109267008091EC
S1130380790090917A00813F910514F080EA8CBD48
S11303908091790090917A008A3A910514F482E868
S11303A08CBD8091620090916300892B31F0109292
S11303B07F00109263001092620080917700909108
S11303C078000A979CF48091680090916900A0914C
S11303D06A00B0916B000196A11DB11D8093680065
S11303E090936900A0936A00B0936B0080917700AA
S11303F0909178004F974CF0109268001092690029
S113040010926A0010926B00089580916800909198
S11304106900A0916A00B0916B00803D9740A105EE
S1130420B105E8F182E080937F0008950DDE90939A
S11304307A008093790015DE90937800809377009A
S1130440809177009091780099230CF44F969595BC
S11304508795959587959595879595958795959580
S1130460879590936100809360002091790030918A
S11304707A00281B390B2D3D310520F08CB58150B5
S11304808CBD08952091790030917A00A901481B10
S1130490590B4C3D510518F48CB58D5F8CBD0895F6
S11304A0CF93DF9300D0CDB7DEB71A82198289814A
S11304B09A818039914054F489819A8101969A8372
S11304C0898389819A8180399140B4F3B49B12C0A5
S11304D01A82198289819A81883E934074F48981B1
S11304E09A8101969A83898389819A81883E93406F
S11304F0B4F306C080E090E005C081E090E002C063
S113050081E090E01A82198222B5216022BD22B5D1
S1130510206122BD0F900F90DF91CF910895F89440
S113052080E090E041E050E063B59A01082E02C0FB
S1130530220F331F0A94E2F72095322F362333BD5E
S113054032B5232322BD01968830910569F789B518
S1130550826089BD09B400FEFDCF89B5846089BD80
S113056080E888BD84E088BDB898C09AB99AC198DB
S1130570BC98C498BB9AC39880B78F7D80BF80B75E
S11305808F7E80BF80B7816080BF86B58D7F86BD3A
S113059086B58E7F86BD80B78F7D80BF8FB5877F00
S11305A08FBD8FB58B7F8FBD8FB58D7F8FBD8FB581
S11305B08E7F8FBD8FEF8BBD1CBC3F983E9A3D9ABA
S11305C03598379AC19A8BB780628BBF8BB780619D
S11305D08BBF82B5816082BD82B5806182BD80B7E8
S11305E0806280BF8FB5877F8FBD8FB58B7F8FBDB6
S11305F08FB582608FBD8FB581608FBD10927800FA
S11306001092770010927A001092790078940895ED
S11306108091750090917600892B49F041DF909389
S1130620740080937300109276001092750080918C
S1130630730090917400019749F481E080937200F3
S11306401DDD80917200813051F008958091730016
S113065090917400892BA9F710927200089557DDC8
S1130660809172008130D9F3089559DFD1DFFECF34
S11306701F920F920FB60F9211248F939F93B49BE6
S11306800BC0C19882B58E7F82BD81E090E09093CB
S113069076008093750008C0B49906C081E090E0AC
S11306A090937600809375009F918F910F900FBE69
S10D06B00F901F901895F894FFCFE7
S9030000FC
