:1000000012C021C0BCC01FC01EC01DC01CC01BC070
:100010001AC019C018C0D6C016C015C014C013C06D
:1000200012C011C010C011241FBECFE5D1E0DEBF49
:10003000CDBF20E0A0E6B0E001C01D92A636B20719
:10004000E1F79AD0C9C0DCCF1B983C9A3B983A980C
:10005000399A389A1E98369A86B1369A86B185B101
:1000600090E008951B9A3C983B983A98399A3898B2
:100070001E9A369A86B1369A86B185B190E0089577
:10008000F89480E090E041E050E063B59A01082EDA
:1000900002C0220F331F0A94E2F72095322F362335
:1000A00033BD32B5232322BD01968830910569F70F
:1000B00089B5826089BD09B400FEFDCF89B5846031
:1000C00089BD80E888BD84E088BDB898C09AB99A97
:1000D000C198BC98C498BB9AC39880B78F7D80BFE5
:1000E00080B78F7E80BF80B7816080BF86B58D7FEF
:1000F00086BD86B58E7F86BD80B78F7D80BF8FB56C
:10010000877F8FBD8FB58B7F8FBD8FB58D7F8FBD67
:100110008FB58E7F8FBD8FEF8BBD1CBC3F983E9AF5
:100120003D9A379A339AC19A8BB780628BBF8BB74F
:1001300080618BBF82B5816082BD82B5806182BDE6
:1001400080B7806280BF8FB5877F8FBD8FB58B7F73
:100150008FBD8FB582608FBD8FB581608FBD789464
:10016000089580DF90936100809360006DDF90932D
:10017000630080936200089583DFF3DFFECF1F9258
:100180000F920FB60F9211248F939F93B49B0BC0C5
:10019000C19882B58E7F82BD81E090E0909365002A
:1001A0008093640008C0B49906C081E090E0909309
:1001B0006500809364009F918F910F900FBE0F9008
:1001C0001F9018951F920F920FB60F9211240F9047
:0C01D0000FBE0F901F901895F894FFCF01
:00000001FF
