:1000000012C021C0C5C01FC01EC01DC01CC01BC067
:100010001AC019C018C0DFC016C015C014C013C064
:1000200012C011C010C011241FBECFE5D1E0DEBF49
:10003000CDBF20E0A0E6B0E001C01D92AC36B20713
:10004000E1F7A3D0F0C0DCCF1B983C9A3B983A98DC
:10005000399A389A1E98369A86B1369A86B108959A
:100060001B9A3C983B983A98399A38981E9A369A37
:1000700086B1369A86B10895F89480E090E041E028
:1000800050E063B59A01082E02C0220F331F0A9474
:10009000E2F72095322F362333BD32B5232322BD1C
:1000A00001968830910569F789B5826089BD09B4E8
:1000B00000FEFDCF89B5846089BD80E888BD84E0FD
:1000C00088BDB898C09AB99AC198BC98C498BB9A90
:1000D000C39880B78F7D80BF80B78F7E80BF80B789
:1000E000816080BF86B58D7F86BD86B58E7F86BDDB
:1000F00080B78F7D80BF8FB5877F8FBD8FB58B7F9A
:100100008FBD8FB58D7F8FBD8FB58E7F8FBD8FEFEC
:100110008BBD1CBC3F983E9A3D9A3598379A339ACE
:10012000C19A8BB780628BBF8BB780618BBF82B562
:10013000816082BD82B5806182BD80B7806280BFF0
:100140008FB5877F8FBD8FB58B7F8FBD8FB5826059
:100150008FBD8FB581608FBD1092630010926200D9
:10016000109265001092640081E080936B00789497
:10017000089580916B00813011F472DF08958091B1
:100180006B00811101C060DF089576DFF2DFFECFE2
:100190001F920F920FB60F9211248F939F93B49BCF
:1001A0000BC0C19882B58E7F82BD81E090E09093B4
:1001B00061008093600008C0B49906C081E090E0BF
:1001C00090936100809360009F918F910F900FBE7C
:1001D0000F901F9018951F920F920FB60F92112437
:1001E0008F939F93F89480916B00882359F081300E
:1001F00091F485B190E09093630080936200109237
:100200006B0009C085B190E0909365008093640015
:1002100081E080936B0078949F918F910F900FBE37
:0A0220000F901F901895F894FFCF7F
:00000001FF
